{
  "_format": "hh-sol-artifact-1",
  "contractName": "DataType",
  "sourceName": "contracts/DataType.sol",
  "abi": [
    {
      "inputs": [
        {
          "internalType": "address",
          "name": "_recipient",
          "type": "address"
        }
      ],
      "stateMutability": "nonpayable",
      "type": "constructor"
    },
    {
      "inputs": [],
      "name": "currentState",
      "outputs": [
        {
          "internalType": "enum DataType.State",
          "name": "",
          "type": "uint8"
        }
      ],
      "stateMutability": "view",
      "type": "function"
    },
    {
      "inputs": [],
      "name": "dynamicData",
      "outputs": [
        {
          "internalType": "bytes",
          "name": "",
          "type": "bytes"
        }
      ],
      "stateMutability": "view",
      "type": "function"
    },
    {
      "inputs": [],
      "name": "fixedData",
      "outputs": [
        {
          "internalType": "bytes32",
          "name": "",
          "type": "bytes32"
        }
      ],
      "stateMutability": "view",
      "type": "function"
    },
    {
      "inputs": [],
      "name": "getDetails",
      "outputs": [
        {
          "internalType": "int256",
          "name": "",
          "type": "int256"
        },
        {
          "internalType": "int256",
          "name": "",
          "type": "int256"
        },
        {
          "internalType": "bool",
          "name": "",
          "type": "bool"
        },
        {
          "internalType": "address",
          "name": "",
          "type": "address"
        },
        {
          "internalType": "address",
          "name": "",
          "type": "address"
        },
        {
          "internalType": "bytes32",
          "name": "",
          "type": "bytes32"
        },
        {
          "internalType": "bytes",
          "name": "",
          "type": "bytes"
        },
        {
          "internalType": "enum DataType.State",
          "name": "",
          "type": "uint8"
        }
      ],
      "stateMutability": "view",
      "type": "function"
    },
    {
      "inputs": [],
      "name": "getDynamicDataAsString",
      "outputs": [
        {
          "internalType": "string",
          "name": "",
          "type": "string"
        }
      ],
      "stateMutability": "view",
      "type": "function"
    },
    {
      "inputs": [],
      "name": "getDynamicDataLength",
      "outputs": [
        {
          "internalType": "uint256",
          "name": "",
          "type": "uint256"
        }
      ],
      "stateMutability": "view",
      "type": "function"
    },
    {
      "inputs": [],
      "name": "isActive",
      "outputs": [
        {
          "internalType": "bool",
          "name": "",
          "type": "bool"
        }
      ],
      "stateMutability": "view",
      "type": "function"
    },
    {
      "inputs": [],
      "name": "negativeNumber",
      "outputs": [
        {
          "internalType": "int256",
          "name": "",
          "type": "int256"
        }
      ],
      "stateMutability": "view",
      "type": "function"
    },
    {
      "inputs": [],
      "name": "positiveNumber",
      "outputs": [
        {
          "internalType": "int256",
          "name": "",
          "type": "int256"
        }
      ],
      "stateMutability": "view",
      "type": "function"
    },
    {
      "inputs": [],
      "name": "recipient",
      "outputs": [
        {
          "internalType": "address",
          "name": "",
          "type": "address"
        }
      ],
      "stateMutability": "view",
      "type": "function"
    },
    {
      "inputs": [
        {
          "internalType": "bytes",
          "name": "_data",
          "type": "bytes"
        }
      ],
      "name": "setDynamicData",
      "outputs": [],
      "stateMutability": "nonpayable",
      "type": "function"
    },
    {
      "inputs": [
        {
          "internalType": "bytes32",
          "name": "_data",
          "type": "bytes32"
        }
      ],
      "name": "setFixedData",
      "outputs": [],
      "stateMutability": "nonpayable",
      "type": "function"
    },
    {
      "inputs": [
        {
          "internalType": "int256",
          "name": "_num",
          "type": "int256"
        }
      ],
      "name": "setNegativeNumber",
      "outputs": [],
      "stateMutability": "nonpayable",
      "type": "function"
    },
    {
      "inputs": [
        {
          "internalType": "int256",
          "name": "_num",
          "type": "int256"
        }
      ],
      "name": "setPositiveNumber",
      "outputs": [],
      "stateMutability": "nonpayable",
      "type": "function"
    },
    {
      "inputs": [
        {
          "internalType": "address",
          "name": "_recipient",
          "type": "address"
        }
      ],
      "name": "setRecipient",
      "outputs": [],
      "stateMutability": "nonpayable",
      "type": "function"
    },
    {
      "inputs": [
        {
          "internalType": "uint256",
          "name": "_state",
          "type": "uint256"
        }
      ],
      "name": "setState",
      "outputs": [],
      "stateMutability": "nonpayable",
      "type": "function"
    },
    {
      "inputs": [],
      "name": "setStateToActive",
      "outputs": [],
      "stateMutability": "nonpayable",
      "type": "function"
    },
    {
      "inputs": [],
      "name": "setStateToInactive",
      "outputs": [],
      "stateMutability": "nonpayable",
      "type": "function"
    },
    {
      "inputs": [
        {
          "internalType": "address",
          "name": "_wallet",
          "type": "address"
        }
      ],
      "name": "setWallet",
      "outputs": [],
      "stateMutability": "nonpayable",
      "type": "function"
    },
    {
      "inputs": [],
      "name": "toggleActive",
      "outputs": [],
      "stateMutability": "nonpayable",
      "type": "function"
    },
    {
      "inputs": [],
      "name": "wallet",
      "outputs": [
        {
          "internalType": "address",
          "name": "",
          "type": "address"
        }
      ],
      "stateMutability": "view",
      "type": "function"
    },
    {
      "stateMutability": "payable",
      "type": "receive"
    }
  ],
  "bytecode": "0x608060405260646000557fffffffffffffffffffffffffffffffffffffffffffffffffffffffffffffffce6001556001600260006101000a81548160ff0219169083151502179055506000600260016101000a81548173ffffffffffffffffffffffffffffffffffffffff021916908373ffffffffffffffffffffffffffffffffffffffff1602179055507f30786162636465663132333435360000000000000000000000000000000000006004556001600660006101000a81548160ff021916908360028111156100d4576100d361014e565b5b02179055503480156100e557600080fd5b5060405161156f38038061156f833981810160405281019061010791906101e0565b80600360006101000a81548173ffffffffffffffffffffffffffffffffffffffff021916908373ffffffffffffffffffffffffffffffffffffffff1602179055505061020d565b7f4e487b7100000000000000000000000000000000000000000000000000000000600052602160045260246000fd5b600080fd5b600073ffffffffffffffffffffffffffffffffffffffff82169050919050565b60006101ad82610182565b9050919050565b6101bd816101a2565b81146101c857600080fd5b50565b6000815190506101da816101b4565b92915050565b6000602082840312156101f6576101f561017d565b5b6000610204848285016101cb565b91505092915050565b6113538061021c6000396000f3fe60806040526004361061012e5760003560e01c80636c19755f116100ab578063af0886861161006f578063af0886861461037d578063b303da8d146103a6578063c148b074146103cf578063deaa59df146103fa578063f84689b714610423578063fbbf93a01461044c57610135565b80636c19755f146102bc5780637fdce617146102e7578063a4ba097f146102fe578063a9e966b714610329578063aca20a5b1461035257610135565b80634b322b28116100f25780634b322b28146101e7578063521eb273146102125780635a0a4a641461023d57806361df08cc1461026857806366d003ac1461029157610135565b80630c3f6acf1461013a57806322f3e2d41461016557806329c68dc11461019057806332a4ec93146101a75780633bbed4a0146101be57610135565b3661013557005b600080fd5b34801561014657600080fd5b5061014f61047e565b60405161015c91906109e6565b60405180910390f35b34801561017157600080fd5b5061017a610491565b6040516101879190610a1c565b60405180910390f35b34801561019c57600080fd5b506101a56104a4565b005b3480156101b357600080fd5b506101bc6104d0565b005b3480156101ca57600080fd5b506101e560048036038101906101e09190610aa9565b6104fd565b005b3480156101f357600080fd5b506101fc610541565b6040516102099190610aef565b60405180910390f35b34801561021e57600080fd5b50610227610547565b6040516102349190610b19565b60405180910390f35b34801561024957600080fd5b5061025261056d565b60405161025f9190610bc4565b60405180910390f35b34801561027457600080fd5b5061028f600480360381019061028a9190610c1c565b6105fb565b005b34801561029d57600080fd5b506102a6610605565b6040516102b39190610b19565b60405180910390f35b3480156102c857600080fd5b506102d161062b565b6040516102de9190610c9e565b60405180910390f35b3480156102f357600080fd5b506102fc6106bd565b005b34801561030a57600080fd5b506103136106ea565b6040516103209190610cd9565b60405180910390f35b34801561033557600080fd5b50610350600480360381019061034b9190610d20565b610700565b005b34801561035e57600080fd5b50610367610794565b6040516103749190610d5c565b60405180910390f35b34801561038957600080fd5b506103a4600480360381019061039f9190610da3565b61079a565b005b3480156103b257600080fd5b506103cd60048036038101906103c89190610f05565b6107a4565b005b3480156103db57600080fd5b506103e46107b7565b6040516103f19190610d5c565b60405180910390f35b34801561040657600080fd5b50610421600480360381019061041c9190610aa9565b6107bd565b005b34801561042f57600080fd5b5061044a60048036038101906104459190610c1c565b610842565b005b34801561045857600080fd5b5061046161084c565b604051610475989796959493929190610f4e565b60405180910390f35b600660009054906101000a900460ff1681565b600260009054906101000a900460ff1681565b600260009054906101000a900460ff1615600260006101000a81548160ff021916908315150217905550565b6002600660006101000a81548160ff021916908360028111156104f6576104f561096f565b5b0217905550565b80600360006101000a81548173ffffffffffffffffffffffffffffffffffffffff021916908373ffffffffffffffffffffffffffffffffffffffff16021790555050565b60045481565b600260019054906101000a900473ffffffffffffffffffffffffffffffffffffffff1681565b6005805461057a90611002565b80601f01602080910402602001604051908101604052809291908181526020018280546105a690611002565b80156105f35780601f106105c8576101008083540402835291602001916105f3565b820191906000526020600020905b8154815290600101906020018083116105d657829003601f168201915b505050505081565b8060018190555050565b600360009054906101000a900473ffffffffffffffffffffffffffffffffffffffff1681565b60606005805461063a90611002565b80601f016020809104026020016040519081016040528092919081815260200182805461066690611002565b80156106b35780601f10610688576101008083540402835291602001916106b3565b820191906000526020600020905b81548152906001019060200180831161069657829003601f168201915b5050505050905090565b6001600660006101000a81548160ff021916908360028111156106e3576106e261096f565b5b0217905550565b6000600580546106f990611002565b9050905090565b6002808111156107135761071261096f565b5b811115610755576040517f08c379a000000000000000000000000000000000000000000000000000000000815260040161074c9061107f565b60405180910390fd5b8060028111156107685761076761096f565b5b600660006101000a81548160ff0219169083600281111561078c5761078b61096f565b5b021790555050565b60015481565b8060048190555050565b80600590816107b3919061124b565b5050565b60005481565b80600260016101000a81548173ffffffffffffffffffffffffffffffffffffffff021916908373ffffffffffffffffffffffffffffffffffffffff16021790555080600360006101000a81548173ffffffffffffffffffffffffffffffffffffffff021916908373ffffffffffffffffffffffffffffffffffffffff16021790555050565b8060008190555050565b600080600080600080606060008054600154600260009054906101000a900460ff16600260019054906101000a900473ffffffffffffffffffffffffffffffffffffffff16600360009054906101000a900473ffffffffffffffffffffffffffffffffffffffff166004546005600660009054906101000a900460ff168180546108d590611002565b80601f016020809104026020016040519081016040528092919081815260200182805461090190611002565b801561094e5780601f106109235761010080835404028352916020019161094e565b820191906000526020600020905b81548152906001019060200180831161093157829003601f168201915b50505050509150975097509750975097509750975097509091929394959697565b7f4e487b7100000000000000000000000000000000000000000000000000000000600052602160045260246000fd5b600381106109af576109ae61096f565b5b50565b60008190506109c08261099e565b919050565b60006109d0826109b2565b9050919050565b6109e0816109c5565b82525050565b60006020820190506109fb60008301846109d7565b92915050565b60008115159050919050565b610a1681610a01565b82525050565b6000602082019050610a316000830184610a0d565b92915050565b6000604051905090565b600080fd5b600080fd5b600073ffffffffffffffffffffffffffffffffffffffff82169050919050565b6000610a7682610a4b565b9050919050565b610a8681610a6b565b8114610a9157600080fd5b50565b600081359050610aa381610a7d565b92915050565b600060208284031215610abf57610abe610a41565b5b6000610acd84828501610a94565b91505092915050565b6000819050919050565b610ae981610ad6565b82525050565b6000602082019050610b046000830184610ae0565b92915050565b610b1381610a6b565b82525050565b6000602082019050610b2e6000830184610b0a565b92915050565b600081519050919050565b600082825260208201905092915050565b60005b83811015610b6e578082015181840152602081019050610b53565b60008484015250505050565b6000601f19601f8301169050919050565b6000610b9682610b34565b610ba08185610b3f565b9350610bb0818560208601610b50565b610bb981610b7a565b840191505092915050565b60006020820190508181036000830152610bde8184610b8b565b905092915050565b6000819050919050565b610bf981610be6565b8114610c0457600080fd5b50565b600081359050610c1681610bf0565b92915050565b600060208284031215610c3257610c31610a41565b5b6000610c4084828501610c07565b91505092915050565b600081519050919050565b600082825260208201905092915050565b6000610c7082610c49565b610c7a8185610c54565b9350610c8a818560208601610b50565b610c9381610b7a565b840191505092915050565b60006020820190508181036000830152610cb88184610c65565b905092915050565b6000819050919050565b610cd381610cc0565b82525050565b6000602082019050610cee6000830184610cca565b92915050565b610cfd81610cc0565b8114610d0857600080fd5b50565b600081359050610d1a81610cf4565b92915050565b600060208284031215610d3657610d35610a41565b5b6000610d4484828501610d0b565b91505092915050565b610d5681610be6565b82525050565b6000602082019050610d716000830184610d4d565b92915050565b610d8081610ad6565b8114610d8b57600080fd5b50565b600081359050610d9d81610d77565b92915050565b600060208284031215610db957610db8610a41565b5b6000610dc784828501610d8e565b91505092915050565b600080fd5b600080fd5b7f4e487b7100000000000000000000000000000000000000000000000000000000600052604160045260246000fd5b610e1282610b7a565b810181811067ffffffffffffffff82111715610e3157610e30610dda565b5b80604052505050565b6000610e44610a37565b9050610e508282610e09565b919050565b600067ffffffffffffffff821115610e7057610e6f610dda565b5b610e7982610b7a565b9050602081019050919050565b82818337600083830152505050565b6000610ea8610ea384610e55565b610e3a565b905082815260208101848484011115610ec457610ec3610dd5565b5b610ecf848285610e86565b509392505050565b600082601f830112610eec57610eeb610dd0565b5b8135610efc848260208601610e95565b91505092915050565b600060208284031215610f1b57610f1a610a41565b5b600082013567ffffffffffffffff811115610f3957610f38610a46565b5b610f4584828501610ed7565b91505092915050565b600061010082019050610f64600083018b610d4d565b610f71602083018a610d4d565b610f7e6040830189610a0d565b610f8b6060830188610b0a565b610f986080830187610b0a565b610fa560a0830186610ae0565b81810360c0830152610fb78185610b8b565b9050610fc660e08301846109d7565b9998505050505050505050565b7f4e487b7100000000000000000000000000000000000000000000000000000000600052602260045260246000fd5b6000600282049050600182168061101a57607f821691505b60208210810361102d5761102c610fd3565b5b50919050565b7f496e76616c696420737461746500000000000000000000000000000000000000600082015250565b6000611069600d83610c54565b915061107482611033565b602082019050919050565b600060208201905081810360008301526110988161105c565b9050919050565b60008190508160005260206000209050919050565b60006020601f8301049050919050565b600082821b905092915050565b6000600883026111017fffffffffffffffffffffffffffffffffffffffffffffffffffffffffffffffff826110c4565b61110b86836110c4565b95508019841693508086168417925050509392505050565b6000819050919050565b600061114861114361113e84610cc0565b611123565b610cc0565b9050919050565b6000819050919050565b6111628361112d565b61117661116e8261114f565b8484546110d1565b825550505050565b600090565b61118b61117e565b611196818484611159565b505050565b5b818110156111ba576111af600082611183565b60018101905061119c565b5050565b601f8211156111ff576111d08161109f565b6111d9846110b4565b810160208510156111e8578190505b6111fc6111f4856110b4565b83018261119b565b50505b505050565b600082821c905092915050565b600061122260001984600802611204565b1980831691505092915050565b600061123b8383611211565b9150826002028217905092915050565b61125482610b34565b67ffffffffffffffff81111561126d5761126c610dda565b5b6112778254611002565b6112828282856111be565b600060209050601f8311600181146112b557600084156112a3578287015190505b6112ad858261122f565b865550611315565b601f1984166112c38661109f565b60005b828110156112eb578489015182556001820191506020850194506020810190506112c6565b868310156113085784890151611304601f891682611211565b8355505b6001600288020188555050505b50505050505056fea2646970667358221220ec75ff41b5b4ee148bd4471b5368d60e50b846fb88d44be6e01d2bc1bdeb16db64736f6c634300081c0033",
  "linkReferences": {},
  "deployedLinkReferences": {}
}